:100000000C942B010C9453010C9453010C94530148
:100010000C9453010C9453010C9453010C94530110
:100020000C9453010C9453010C941E090C948D09EB
:100030000C9453010C9453010C9453010C945301F0
:100040000C9453010C9453010C9453010C945301E0
:100050000C9453010C9453010C9453010C94D40848
:100060000C9453010C94E50B0C94BF0B0C945301AE
:100070000C9453010C9453010C9453010C945301B0
:100080000C9453010C9453010C9453010C945301A0
:100090000C9453010C9453010C9453010C94530190
:1000A0000C9453010C9453010C945301080B00025F
:1000B0000202000009040000010202000005240001
:1000C0001001052401010104240206052406000193
:1000D0000705810310004009040100020A00000026
:1000E00007050202400000070583024000000403E8
:1000F000090412010002EF02014041233780000190
:100100000102030141726475696E6F204C4C43001B
:1001100041726475696E6F204D6963726F000000F3
:100120000000240027002A002D00300000000000FD
:10013000250028002B002E003100000000002300C5
:10014000260029002C002F000404040404030405E5
:100150000202020204030202020206060606060664
:10016000040402020204040408020110408040104A
:1001700020408040800802040180402010020110CD
:100180008010204040200000000200090F00000302
:100190000401000C0000000000000000000000004E
:1001A000000000000000000000000000002A2B28D2
:1001B000000000000000000000000000000000003F
:1001C00000000000002C9EB4A0A1A2A434A6A7A504
:1001D000AE362D3738271E1F20212223242526B393
:1001E00033B62EB7B89F8485868788898A8B8C8D95
:1001F0008E8F909192939495969798999A9B9C9DA7
:100200002F3130A3AD350405060708090A0B0C0D84
:100210000E0F101112131415161718191A1B1C1D86
:10022000AFB1B0B50005010906A1018502050719A6
:10023000E029E715002501750195088102950175F2
:10024000088103950675081500257305071900290F
:10025000738100C0390C11241FBECFEFDAE0DEBF7E
:10026000CDBF11E0A0E0B1E0EAEFF5E202C00590F9
:100270000D92A635B107D9F723E0A6E5B1E001C09C
:100280001D92A93BB207E1F711E0CBE2D1E004C037
:100290002197FE010E94D011CA32D107C9F70E94EE
:1002A0002D0D0C94FB120C940000EAECF1E0A089F7
:1002B000B18982E08C93A485B5851C92A685B7850B
:1002C0008FEC8C93108EA489B58986E28C93A289D9
:1002D000B3898C9180618C93A289B3898C91886059
:1002E0008C93A289B3898C9180688C930288F3895E
:1002F000E02D80818F7D80830895CF93DF93FC0173
:10030000818190916B02482F490F5527551F483026
:1003100051059CF5A281B381109709F527E632E0DB
:100320003383228320812093690280936A02809123
:100330006C02820F808320916D02A22FB0916E0219
:100340008A2F821B8917E8F481813D91C82FD0E064
:10035000C35FDE4F38838F5F8183F2CFD901189658
:100360002D913C91199721153105C1F727E632E00F
:1003700019963C932E931897D5CF80E0DF91CF91BB
:10038000089581E0FBCFFC0180917901882311F170
:100390003FB7F89482E08093E9002091F200822F29
:1003A00090E01816190614F481E090E0882339F0E3
:1003B000289A44E6409378014091F100408322233B
:1003C00039F02091F200211103C02BE62093E800C0
:1003D0003FBF08958FEF9FEF0895CF93DF931F9254
:1003E000CDB7DEB76983DC01ED91FC910280F3812A
:1003F000E02D41E050E0BE016F5F7F4F09950F9007
:10040000DF91CF91089583E08093E9008091F2001D
:10041000882319F08AE38093E8000895CF93DF934F
:100420001F92CDB7DEB7FC018485958597FD08C086
:100430002FEF3FEF358724870F90DF91CF910895FD
:10044000CE0101960E94C301019719F4898190E0C1
:10045000F3CF8FEF9FEFF0CF0F931F93CF93DF93E7
:100460001F92CDB7DEB78C01FC018485958597FF7F
:100470000BC0CE0101960E94C301019771F48981DE
:1004800090E0F80195878487F801848595850F9021
:10049000DF91CF911F910F9108958FEF9FEFF1CFD3
:1004A000FC018485958597FD0BC09FB7F89482E089
:1004B0008093E9008091F2009FBF90E0019608953B
:1004C0009FB7F89482E08093E9008091F2009FBF8B
:1004D00090E0089581508F3008F047C0E82FF0E099
:1004E000EC58FD4F0C94D0119102950283028902C1
:1004F0008D02B502B502B50298029E02A202A602C2
:10050000AC02B502B002809180008F7780938000AA
:100510000895809180008F7DF9CF80918000877F42
:10052000F5CF84B58F7784BD089584B58F7DFBCFDB
:10053000809190008F778093900008958091900033
:100540008F7DF9CF80919000877FF5CF8091C0009B
:100550008F778093C00008958091C0008F7DF9CF80
:100560008091C200877F8093C2000895CF93DF936C
:10057000ECE9F1E08491EDE7F1E0D491EEE5F1E012
:10058000C491CC23A1F081110E946A02EC2FF0E00B
:10059000EE0FFF1FE65CFE4FA591B491EC91ED23A9
:1005A00081E090E009F480E0DF91CF91089580E050
:1005B00090E0FACF1F93CF93DF93282F30E0F9011B
:1005C000EA57FE4F8491F901E959FE4FD491F901A0
:1005D000E85BFE4FC491CC23A9F0162F81110E9435
:1005E0006A02EC2FF0E0EE0FFF1FE45DFE4FA591D5
:1005F000B4918FB7F894EC91111108C0D095DE2317
:10060000DC938FBFDF91CF911F910895DE2BF8CF40
:10061000CF93DF9390E0FC01E959FE4F2491885B72
:100620009E4FFC0184918823D1F090E0880F991FA0
:10063000FC01E25EFE4FA591B491FC01E45DFE4F2A
:10064000C591D49161110EC09FB7F8948C91E22F9F
:10065000E0958E238C932881E223E8839FBFDF916E
:10066000CF9108958FB7F894EC91E22BEC938FBF64
:10067000F6CF3FB7F8948091740190917501A091E5
:100680007601B091770126B5A89B05C02F3F19F0E0
:100690000196A11DB11D3FBFBA2FA92F982F882702
:1006A000BC01CD01620F711D811D911D42E0660FDD
:1006B000771F881F991F4A95D1F708958F929F92AF
:1006C000AF92BF92CF92DF92EF92FF924B015C010B
:1006D0000E9439036B017C010E9439036C197D096A
:1006E0008E099F09683E734081059105A8F321E0BA
:1006F000821A9108A108B10888EEC80E83E0D81EBE
:10070000E11CF11C81149104A104B10429F7FF90AC
:10071000EF90DF90CF90BF90AF909F908F90089513
:100720002FB7F894609170017091710180917201FE
:10073000909173012FBF089540916401509165011C
:10074000209162013091630142175307B4F49091F4
:10075000E8009570E1F39091E80092FD19C0809354
:10076000F100809164019091650101968F73992742
:10077000892B19F48EEF8093E800809164019091A9
:1007800065010196909365018093640181E008956D
:1007900080E00895EF92FF920F931F93CF93DF9322
:1007A000F82E192FE62E042F81E0860F880F0E9465
:1007B0009C0383E00E949C03CF2DD12FEC0EFD2ED5
:1007C000F11CCE15DF05B9F007FF13C0FE018491BF
:1007D0000E949C03182F80E00E949C038123219695
:1007E0008111EFCFDF91CF911F910F91FF90EF908B
:1007F00008958881EDCF81E0F5CFDF92EF92FF92EF
:100800000F931F93CF93DF93D82E8A01EB017B01C7
:10081000E40EF51ECE15DF0559F0D7FE12C0FE011D
:1008200084910E949C0321968111F4CF0FEF1FEF5A
:10083000C801DF91CF911F910F91FF90EF90DF9052
:1008400008958881EECF2FB7F89487708093E900E0
:100850009091E800892F807295FF04C09091F2007A
:1008600080E4891B2FBF089583E00E94230490E059
:1008700008957F928F929F92AF92BF92CF92DF9214
:10088000EF92FF920F931F93CF93DF93C82E8B01AC
:100890007A0180917901811110C08FEF9FEFDF9174
:1008A000CF911F910F91FF90EF90DF90CF90BF906D
:1008B000AF909F908F907F9008958091680180FF06
:1008C00005C08091E00082608093E000CE2DDF2D96
:1008D000D12C8AEFB82E8C2D8770982E8C2D80729B
:1008E000882E8C2D8074782E9AE3A92E209719F4E7
:1008F000DD2009F452C08C2D0E94230481110AC00E
:10090000BA94BB2051F261E070E080E090E00E9478
:100910005E03ECCF8C171D0611F00CF08C2F9FB7E7
:10092000F8949092E9002091E80025FD02C09FBF55
:10093000DDCF282F30E0C21BD30B882029F0815057
:10094000A0F01092F100FBCFF801C7FC0AC0815063
:1009500050F041914093F100FACF44914093F1005F
:1009600031968150D0F7020F131FDD2021F0A092A5
:10097000E800D12CDCCF8091E80085FD07C0A09273
:10098000E800DD24D394209791F2F3CF209779F6F5
:10099000772069F2A092E800CACF5D9A84E680933E
:1009A0006701C7017CCFCF93DF93EC0180910C01ED
:1009B000882331F083E00E9439041816190634F0B8
:1009C00081E090E09B838A8380E090E0DF91CF918B
:1009D0000895615030F02091F100FC0120830196D0
:1009E000F8CF289A84E6809378010895AF92BF9259
:1009F000CF92DF92EF92FF920F931F93CF93DF93EB
:100A00006C017B018B01040F151FEB015E01AE1819
:100A1000BF08C017D10759F06991D601ED91FC913B
:100A20000190F081E02DC6010995892B79F7C50168
:100A3000DF91CF911F910F91FF90EF90DF90CF90BA
:100A4000BF90AF90089580915A0181110DC082E04E
:100A50008093560184E080935701109259011092BF
:100A6000580181E080935A0186E591E00895EF9264
:100A7000FF921F93CF93DF931F92CDB7DEB77C0118
:100A80008091780281112AC011E010936B021093BB
:100A90006C0281E792E090936E0280936D02109257
:100AA000700210926F0282E491E09093680280934A
:100AB00067021092730210927202109275021092E5
:100AC0007402109376021093770281EC8093710286
:100AD0000E9423050E947D011093780282E08983A1
:100AE00041E050E0BE016F5F7F4F80916A020E943B
:100AF000390497FD08C080916A0248E050E0B701D0
:100B000080640E9439040F90DF91CF911F91FF9074
:100B1000EF9008950F931F93CF93DF931F92CDB75C
:100B2000DEB782E0898342E450E06CEA70E080E85E
:100B30000E94FD030E942305DC0112960D911C9179
:100B40000115110589F0D801ED91FC910280F38126
:100B5000E02DBE016F5F7F4FC801099597FD04C06E
:100B6000F80100851185ECCF89810F90DF91CF913D
:100B70001F910F910895FC01538D448D252F30E076
:100B8000842F90E0821B930B541710F0CF9608959A
:100B900001970895FC01918D828D981761F0A28DC7
:100BA000AE0FBF2FB11D5D968C91928D9F5F9F738D
:100BB000928F90E008958FEF9FEF0895FC01918D43
:100BC000828D981731F0828DE80FF11D858D90E0B0
:100BD00008958FEF9FEF0895FC01918D228D892F4D
:100BE00090E0805C9F4F821B91098F739927089535
:100BF0008AEC91E00E94EC0521E0892B09F420E0C9
:100C0000822F089580E090E0892B29F00E94F8055A
:100C100081110C9400000895FC01A48DA80FB92F38
:100C2000B11DA35ABF4F2C91848D90E001968F7314
:100C30009927848FA689B7892C93A089B1898C9133
:100C400082748C93938D848D981306C00288F389E7
:100C5000E02D80818F7D80830895EF92FF920F9326
:100C60001F93CF93DF93EC0181E0888F9B8D8C8D58
:100C7000981319C0E889F989808185FF14C09FB74E
:100C8000F894EE89FF896083E889F989808182740C
:100C900080839FBF81E090E0DF91CF911F910F9102
:100CA000FF90EF900895F62E0B8D10E00F5F1F4F11
:100CB0000F731127E02E8C8D8E110CC00FB607FC20
:100CC000FACFE889F989808185FFF5CFCE010E94AE
:100CD0000C06F1CFEB8DEC0FFD2FF11DE35AFF4F0A
:100CE000F0829FB7F8940B8FEA89FB89808180623C
:100CF000CFCFCF93DF93EC01888D8823B9F0AA89F9
:100D0000BB89E889F9898C9185FD03C0808186FDC6
:100D10000DC00FB607FCF7CF8C9185FFF2CF808115
:100D200085FFEDCFCE010E940C06E9CFDF91CF9178
:100D30000895DC01FB0112962C9112978481958114
:100D40002817190641F491818081813A31F49D7F01
:100D500081E0913009F080E008958132E1F79B3025
:100D600029F482811F968C9381E008959A3099F737
:100D7000828150968C93F8CFDC01FB0188E480835C
:100D800089E4818384E482831D969C911D979F70E2
:100D90009F5B93831D968D919C9124E096958795FA
:100DA0002A95E1F78F708F5B848385E00895EF9239
:100DB000FF920F931F93CF93DF93FB012081213884
:100DC00071F52381223259F5DC0112964C91248170
:100DD00035814217130619F5EC010B851C85F12CA2
:100DE000E12C0115110589F0F801448155816281DA
:100DF000738180E80E94FD038F3F980749F0E80E59
:100E0000F91ED8010D911C91ECCF81E08F87C701AD
:100E1000DF91CF911F910F91FF90EF90089590E097
:100E200080E0F6CFCF93DF93CDB7DEB769970FB6EB
:100E3000F894DEBF0FBECDBFFC01DB018C918F5F4C
:100E40008C939E012D5F3F4F8DE0D9011D928A95B5
:100E5000E9F729E0298384E08A8391E09D8383E098
:100E60008E832A8721E22B879C879D879F8722E29A
:100E7000288B27E02B8B25E02C8B8E8B20E430E019
:100E8000388F2F8B998F82818B8395858685998B5F
:100E90008A8B838180688D8B49E150E0BE016F5F52
:100EA0007F4F80E00E94FD0369960FB6F894DEBF85
:100EB0000FBECDBFDF91CF910895CF92DF92EF9219
:100EC000FF920F931F93CF93DF936C01EB017B0194
:100ED000E40EF51E10E000E0CE15DF0581F069910B
:100EE0006D30D1F3D601ED91FC910190F081E02DB0
:100EF000C6010995892B19F00F5F1F4FEDCFC8016F
:100F0000DF91CF911F910F91FF90EF90DF90CF90E5
:100F10000895EF92FF921F93CF93DF93EC01162F6A
:100F2000E8E7E60F683888F4862F90E067FF50C046
:100F3000FC01E058F10921E030E001C0220FEA9500
:100F4000EAF78C81822B8C83E0E08E818E17D9F0BA
:100F50008F81E817C1F08885E817A9F08985E8171F
:100F600091F08A85E81779F08B85E81761F0DE014A
:100F7000169690E080E02D9121115EC08C0F9D1F90
:100F8000DC011696EC93CE0104960E943705EE2400
:100F9000E394F12C183848F11858DE0186E011234B
:100FA00041F016969C911697191303C016961C9241
:100FB0001697815011968111F2CFCE0104960E94AE
:100FC0003705C701DF91CF911F91FF90EF900895F2
:100FD000EC85FD85E80FF91FE491E11119C081E06E
:100FE00090E09B838A83F12CE12C812F90E017FF06
:100FF0002FC0FC01E058F10981E090E001C0880FAA
:10100000EA95EAF780959C8189238C8310E0C5CF0F
:101010008E2F807C803C49F48C8180648C83EF73BC
:10102000E23309F092CFE4E690CFE7FFF9CF8C816D
:1010300082608C83EF77F4CF01968630910509F0BA
:101040009ACF81E090E09B838A83F12CE12CA2CFA0
:10105000EC85FD85E80FF91F1491112309F4B1CF38
:10106000812F807C803C49F48C818F7B8C831F7323
:10107000123309F092CF14E690CF17FFF9CF8C818D
:101080008D7F8C831F77F4CF089590E080E00895E2
:10109000DC01ED91FC9170E081818150990B681722
:1010A000790724F4E60FF71F8381089580E00895FF
:1010B000CF93C82F61E087E10E9408036C2F87E17E
:1010C000CF910C94DA02CF93C82F61E086E10E94A1
:1010D00008036C2F86E1CF910C94DA02CF93C82FCE
:1010E00061E085E10E9408036C2F85E1CF910C94AB
:1010F000DA021F93CF93DF93182FD62F0E94B602E8
:10110000892B49F4C0E0612F8EE892E00E948907A4
:10111000CF5FDC13F8CFDF91CF911F9108951F931C
:10112000CF93DF93DC01ED91FC912081203F99F476
:101130002281283681F42181223068F0162FEC01BB
:1011400060E00E944808883431F461E0CE010E94DA
:10115000480891E0181390E0892FDF91CF911F91FB
:1011600008950F931F93CF93DC01ED91FC912081A3
:10117000203FA1F422812B3389F42181223070F0A9
:10118000C62F8C0160E00E944808893439F461E080
:10119000C8010E944808C05891E0C81390E0892F08
:1011A000CF911F910F9108951F920F920FB60F923A
:1011B00011242F933F938F939F93AF93BF9380916D
:1011C000700190917101A0917201B0917301309101
:1011D0006F0123E0230F2D3758F50196A11DB11D96
:1011E00020936F018093700190937101A09372011D
:1011F000B09373018091740190917501A091760173
:10120000B09177010196A11DB11D80937401909357
:101210007501A0937601B0937701BF91AF919F9133
:101220008F913F912F910F900FBE0F901F901895A7
:1012300026E8230F0296A11DB11DD2CF1F920F9257
:101240000FB60F9211248F939F938091E10090919C
:10125000E100937F9093E10083FF0FC01092E900BB
:1012600091E09093EB001092EC0092E39093ED00EC
:101270001092790198E09093F00082FF22C093E0F1
:101280009093E9009091F200992319F09AE39093DA
:10129000E80090916701992341F090916701915086
:1012A00090936701911101C05D9890917801992305
:1012B00041F090917801915090937801911101C083
:1012C000289884FF18C08091E2008E7E8160809310
:1012D000E2008091E1008F7E8093E10080916801BF
:1012E0008E7E8061809368019F918F910F900FBED9
:1012F0000F901F90189580FFF7CF8091E2008E7EAF
:1013000080618093E2008091E1008E7E8093E10015
:10131000809168018E7E8160E5CF1F920F920FB69B
:101320000F921124CF92DF92EF92FF920F931F93AF
:101330002F933F934F935F936F937F938F939F93DD
:10134000AF93BF93EF93FF93CF93DF93CDB7DEB708
:101350006C97DEBFCDBF1092E9008091E80083FF5B
:1013600025C068E0CE0145960E94E90482EF809393
:10137000E8008D8987FF39C09091E80090FFFCCF8D
:10138000982F907609F034C19E894F89588D2F8906
:10139000F88C911131C0803861F58091690180939A
:1013A000F1001092F1008EEF8093E8006C960FB67A
:1013B000F894DEBF0FBECDBFDF91CF91FF91EF91CB
:1013C000BF91AF919F918F917F916F915F914F915D
:1013D0003F912F911F910F91FF90EF90DF90CF9051
:1013E0000F900FBE0F901F9018959EEF9093E800FE
:1013F000C7CF1092F100D5CF913059F48111D3CFDE
:101400004130510581F6809169018D7F809369019A
:10141000CACF933049F48111C6CF4130510519F636
:10142000809169018260F2CF953041F48091E800AB
:1014300080FFFCCF20682093E300B5CF963009F001
:10144000A9C00B8D1C8D22E01092E900109265015D
:1014500010926401F2122EC0109263011092620188
:101460000E948A051F8299E09983FA8291E09E8307
:1014700090EA98879AEF99872091640130916501ED
:10148000275F3F4F3C832B838D831092E90010929E
:10149000650110926401109363010093620149E0B9
:1014A00050E0BE016F5F7F4F80E00E94FD030E940D
:1014B0008A0579CF10936301009362010E9423058E
:1014C000DC0112960D911C910115110509F451C111
:1014D000D801ED91FC910480F581E02DBE016B5E99
:1014E0007F4FC8010995009709F03EC1F8010085BA
:1014F0001185EACFF3E0FF120EC08F89882309F42B
:1015000040C0823061F440E86DE080E191E00E94EB
:10151000CA03811148CF81E28093EB0047CF81302D
:1015200029F440E86BE084E091E0F1CF833099F753
:101530000E942305DC011296ED90FC908E010F5F56
:101540001F4F6801E114F10479F0D701ED91FC918E
:101550000680F781E02DB801C7010995080F111D1C
:10156000F701E084F184EECFD8011C92F6010190DE
:101570000020E9F73197BF016C197D0940E0C601F1
:10158000C6CF6EEE70E0FB01449150E080E80E940F
:10159000FD0309CF973009F4BECF983021F481E0E4
:1015A0008093F10000CF993009F0FDCE837009F0EF
:1015B000B2CFEEE0F1E081E031E096E32191222329
:1015C00071F08093E9003093EB00DF0111972C91CB
:1015D0002093EC009093ED008F5F873079F78EE7D2
:1015E0008093EA001092EA008F8980937901DBCE24
:1015F0008B8D9C8D1092E900109265011092640110
:101600009093630180936201898D811192C08E89CC
:101610009D89913A49F4813209F07DCF47E050E04D
:1016200065E071E080E0B3CF913209F074CF83328E
:1016300069F48F89988DB0E0A0E0809300019093C9
:101640000101A0930201B0930301ADCE803269F491
:101650008091E80082FFFCCF67E085E091E00E9486
:10166000E9048BEF8093E8009ECE823209F09BCE96
:101670008F8980930C01EEEFFFE7859194918B3F6A
:101680009C4D51F1E0E0F8E0809105019091060158
:10169000A0910701B0910801803B9440A105B105DC
:1016A000F1F480910C0180FD1AC0EE3F8AE0F8074A
:1016B00089F587E797E79183808380916000809325
:1016C000660188E19BE00FB6F894A89580936000CE
:1016D0000FBE9093600067CEEEEFFAE0D5CF808129
:1016E00091818737974709F05ECEA8958091600079
:1016F0008861809360008091660180936000EE3F76
:101700002AE0F20789F08091FE0A9091FF0A918306
:10171000808349CE808191818737980751F29093D9
:10172000FF0A8093FE0AC5CF1092FF0A1092FE0AAC
:101730003ACE0E942305DC0112960D911C910115F1
:10174000110509F4E8CED801ED91FC910190F081EA
:10175000E02DBE016B5E7F4FC8010995811123CE3C
:10176000F80100851185EBCF181619060CF41BCE75
:10177000D2CEF1E0FF12BECE62EF70E004CF1F9236
:101780000F920FB60F9211242F933F934F935F93B5
:101790006F937F938F939F93AF93BF93EF93FF9339
:1017A0008AEC91E00E940C06FF91EF91BF91AF91FE
:1017B0009F918F917F916F915F914F913F912F9169
:1017C0000F900FBE0F901F9018951F920F920FB69B
:1017D0000F9211242F938F939F93EF93FF93E09198
:1017E000DA01F091DB018081E091E001F091E1010B
:1017F00082FD1BC090818091E3018F5F8F732091E8
:10180000E401821741F0E091E301F0E0E653FE4F7E
:10181000958F8093E301FF91EF919F918F912F918D
:101820000F900FBE0F901F9018958081F4CF1F93DB
:10183000CF93DF93DC01ED91FC912081203F99F45F
:1018400022812B3381F42181223068F0162FEC01A4
:1018500060E00E944808893431F461E0CE010E94C2
:10186000480891E0181390E0892FDF91CF911F91E4
:101870000895CF9310927D0110927C0188EE93E041
:10188000A0E0B0E080937E0190937F01A09380015F
:10189000B09381012EE131E030937B0120937A01F6
:1018A0002FEF3FEF30938701209386011092CD01F7
:1018B0001092CC018093CE019093CF01A093D001E0
:1018C000B093D10180E391E09093CB018093CA0162
:1018D0008DEC90E09093D7018093D6018CEC90E052
:1018E0009093D9018093D80188EC90E09093DB012C
:1018F0008093DA0189EC90E09093DD018093DC0124
:101900008AEC90E09093DF018093DE018EEC90E012
:101910009093E1018093E0011092E3011092E401C1
:101920001092E5011092E60110929102109290023D
:101930008EE491E090938F0280938E0280918602D4
:10194000811113C0109281021092800285E292E010
:1019500090938302809382028FE290E090938502BD
:101960008093840281E080938602809178028111C5
:101970002AC0C1E0C0936B02C0936C0281E792E081
:1019800090936E0280936D021092700210926F021B
:1019900082E491E090936802809367021092730250
:1019A000109272021092750210927402C093760225
:1019B000C093770281EC809371020E9423050E94FC
:1019C0007D01C0937802E0917202F091730230972A
:1019D000D9F580E892E0909373028093720280912F
:1019E0007402909175022091840230918502820FD9
:1019F000931F909375028093740285EA91E090930F
:101A00009B0280939A0210929E0210929F02E0EA3B
:101A1000F2E08FEFDF011D928A95E9F7EFE9F3E03D
:101A200080E1DF011D928A95E9F71092AF031092D1
:101A3000B0031092B1031092B2031092B30310924C
:101A4000B403CF910895FC01808191810097D9F76B
:101A500080E892E091838083C2CFCF93DF9300D060
:101A6000CDB7DEB7789484B5826084BD84B58160DB
:101A700084BD85B5826085BD85B5816085BD809159
:101A80006E00816080936E001092810080918100D1
:101A900082608093810080918100816080938100C9
:101AA00080918000816080938000809191008260AD
:101AB000809391008091910081608093910080914A
:101AC00090008160809390008091C1008460809339
:101AD000C1008091C10082608093C1008091C100EB
:101AE00081608093C1008091C30081608093C300B6
:101AF0008091C00082608093C0008091C2008160AC
:101B00008093C20080917A00846080937A008091F3
:101B10007A00826080937A0080917A00816080935D
:101B20007A0080917A00806880937A00109279011F
:101B300010926901109268018091D70081608093B2
:101B4000D70080EA8093D80089B5806189BD89B5C6
:101B5000826089BD09B400FEFDCF61E070E080E0E5
:101B600090E00E945E038091D8008F7C806180931A
:101B7000D8008091E000807F8093E0008091E100B8
:101B80008E7E8093E1008DE08093E200559A209A4A
:101B90005D98289880E830E020E00FB6F8948093B4
:101BA0006100209361000FBE60E087E00E9408039F
:101BB00061E08DE00E94080361E08DE00E94DA029E
:101BC00080E00E946E0881E00E94630861E08BE083
:101BD0000E94080361E08BE00E94DA0280E00E942C
:101BE00058080E9455018AEC91E090939D028093E1
:101BF0009C020E9455010E94900360936B017093B8
:101C00006C0180936D0190936E0110926A0185EAD8
:101C100091E090939B0280939A0264EF71E080E0E0
:101C200090E00E945E03BB24B39480E0C82E80E065
:101C3000D82EEE24E39480919F02882331F01092F5
:101C4000A1021092AF0310929F028091AF038F3FC9
:101C500031F41092A1021092AF0310929F02809172
:101C6000AF038823C9F00E9490030091B103109143
:101C7000B2032091B3033091B403601B710B820B4C
:101C8000930B683071058105910530F01092A10227
:101C90001092AF0310929F0280919C0290919D023E
:101CA000DC01ED91FC910084F185E02D0995892BF3
:101CB00009F180919C0290919D02DC01ED91FC91D3
:101CC0000284F385E02D09959091B003992309F4DE
:101CD00040C020919E0221113CC091509093B003CE
:101CE0000E9490036093B1037093B2038093B30397
:101CF0009093B40380919E028823C1F10E949003C7
:101D00000091B1031091B2032091B3033091B40359
:101D1000601B710B820B930B60327105810591057D
:101D200028F110E08091B0031817F0F480919C0224
:101D300090919D02A12FB0E0A156BC4FFC012081E3
:101D40003181F901208131816C91F90109951F5F81
:101D5000E9CF9091AF03E92FF0E0E456FD4F848383
:101D60009F5F9093AF03BCCF10929E022091AF0370
:101D7000253040F1F090A1028F2D90E0AC014E5F34
:101D80005F4F24171506F1F42091A0022F25E2EAF7
:101D9000F2E042E050E001964817590728F43191EB
:101DA00023274F5F5F4FF8CF84569D4FDC01149679
:101DB0008C91281709F46CC01092A1021092AF0305
:101DC00010929F0280916A01811156C00E94900377
:101DD00000916B0110916C0120916D0130916E01A9
:101DE000601B710B820B930B613375478105910565
:101DF00008F442C08AEC91E00E947906E091DC018F
:101E0000F091DD0180818F7E8083E091DC01F09193
:101E1000DD018081877F8083E091DC01F091DD012D
:101E200080818F778083E091DC01F091DD018081FA
:101E30008F7D80838091E4018093E30161E081E004
:101E40000E94080360E081E00E94DA0262E370E031
:101E500080E090E00E945E0361E08BE00E94080356
:101E600060E08BE00E94DA0262E370E080E090E0E4
:101E70000E945E03E0926A01C114D10409F4DBCE32
:101E80000E94F805882309F4D6CE0E940000D3CE24
:101E9000E0929F02F39481E0F1108F2D90E00E9478
:101EA000D6118C019A838983A0EAB2E0982FF801B9
:101EB0008E2F891B8F1518F48D918193F9CF109275
:101EC000A1021092AF0310929F020E9490036093B0
:101ED0006B0170936C0180936D0190936E01F8011A
:101EE000F080F0E8FF12F5C0D80112968C9112979D
:101EF0008F3B09F05DC011968C918230A0F060E0BC
:101F0000CE0101960E944808813169F461E0CE015A
:101F100001960E944808833031F481E00E946E08E7
:101F200081E00E945808D80111968C91823008F403
:101F30003FC060E0CE0101960E9448088131C1F5A2
:101F400061E0CE0101960E944808811131C00E94D3
:101F5000580861E087E00E94080360E087E00E9483
:101F6000DA0268EC70E080E090E00E945E0360E0DE
:101F700087E00E94080364EF71E080E090E00E9437
:101F80005E0360E087E00E94DA0268EC70E080E0C7
:101F900090E00E945E0360E087E00E94080368EB27
:101FA0007BE080E090E00E945E0380E00E946E088B
:101FB00061E2CE0101960E948F08811156C061E353
:101FC000CE0101960E948F0881114FC064E0CE01BE
:101FD00001960E948F08811148C0F0EFFF1218C0CF
:101FE000D80112968C9112978F3F91F411968C9193
:101FF000823070F060E0CE0101960E94480888347B
:1020000039F461E0CE0101960E944808843369F1F9
:1020100063E2CE0101960E948F08811126C0B0EFC5
:10202000FB121CC0F80182818F3FC1F48181833093
:10203000A8F060E0CE0101960E944808873471F450
:1020400061E0CE0101960E944808811107C062E05C
:10205000CE0101960E944808883339F060E3CE0132
:1020600001960E948F08882319F081E00E9463087E
:1020700061E1CE0101960E948F0861E0882309F496
:102080004EC088E60E947908F0E5FF12CCC0D80166
:1020900012968C911297883609F0F3C01196FC9035
:1020A000B1E0BF1508F0AAC060E0CE0101960E9421
:1020B00048088B3309F0A2C061E0CE0101960E946E
:1020C0004808813009F09AC061E08EE60E947908E4
:1020D00011C1B0EFFB126CCFF80182818F3F09F084
:1020E00067CF8181823008F463CF60E0CE01019632
:1020F0000E944808883409F05BCF61E0CE01019668
:102100000E944808883009F053CF0E94B60221E0AF
:10211000019709F420E0822F0E94630849CFCE0185
:1021200001960E948F08882319F061E082EBAACF04
:1021300062E1CE0101960E948F08882319F061E0C8
:1021400080E7A0CF62E0CE0101960E948F0888232D
:1021500019F061E083E796CF63E1CE0101960E941A
:102160008F08882319F061E08AED8CCF63E0CE01FF
:1021700001960E948F08882319F061E089ED82CFD3
:10218000F0E5FF1250C0D80112968C911297883C4E
:10219000D1F411968C91823008F479CF60E0CE01B1
:1021A00001960E9448088B3309F071CF61E0CE019F
:1021B00001960E944808803809F069CF61E086E7FF
:1021C0000E94790864CF8F3F09F061CFF8018181C7
:1021D000823008F45CCF60E0CE0101960E9448088E
:1021E0008B3309F054CF61E0CE0101960E9448087C
:1021F000803409F04CCF61E081E6E2CFE1E0EF15F9
:1022000008F03FC060E0CE0101960E9448088B3381
:10221000C1F561E0CE0101960E944808883089F539
:1022200061E082E653CFF0EFFF122BC0D801129687
:102230008C9112978836C1F51196FC90B1E0BF15CC
:1022400070F460E0CE0101960E944808883439F4A9
:1022500061E0CE0101960E944808803109F3E1E077
:10226000EF1578F460E0CE0101960E9448088834AA
:1022700041F461E0CE0101960E944808882309F4E8
:1022800023CF61E0CE0101960E94B10861E0811187
:1022900009C062E0CE0101960E94B108882309F4CA
:1022A0004CC062E087ED12CF8F3F61F511968C91A3
:1022B000833038F360E0CE0101960E9448088734ED
:1022C00001F761E0CE0101960E9448088111D9CF43
:1022D00062E0CE0101960E9448088F3091F6F0909E
:1022E000040189EDF1108AED61E00E947908FB2478
:1022F000F09204010115110509F464CDC8010E9492
:10230000721260CD8B3309F0BCCFF801818182302D
:1023100008F4B7CF60E0CE0101960E9448088834E7
:1023200009F0AFCF61E0CE0101960E9448088530E8
:1023300009F0A7CF61E080EBC9CE63E0CE01019642
:102340000E94B10863E08111ADCF64E0CE01019637
:102350000E94B10864E08111A5CF61E0CE01019631
:102360000E94170C61E0811119C062E0CE01019654
:102370000E94170C62E0811111C063E0CE0101964A
:102380000E94170C63E0811109C064E0CE01019640
:102390000E94170C882309F4ADCF64E088ED96CE37
:1023A000EE0FFF1F0590F491E02D09940F931F93FA
:1023B000CF93DF938230910510F482E090E0E091BA
:1023C000B703F091B80330E020E0B0E0A0E0309730
:1023D00099F42115310509F44AC0281B390B243022
:1023E0003105D8F58A819B816115710589F1FB0161
:1023F00093838283FE0111C0408151810281138148
:1024000048175907E0F04817590799F4109761F0F9
:1024100012960C93129713961C933296CF01DF916C
:10242000CF911F910F9108950093B7031093B803B4
:10243000F4CF2115310551F04217530738F0A901A7
:10244000DB019A01BD01DF01F801C1CFEF01F9CF36
:102450009093B8038093B703CDCFFE01E20FF31F33
:10246000819391932250310939832883D7CF2091CA
:10247000B5033091B603232B41F42091160130911E
:1024800017013093B6032093B503209114013091C6
:1024900015012115310541F42DB73EB740911801C2
:1024A00050911901241B350BE091B503F091B6034F
:1024B000E217F307A0F42E1B3F0B2817390778F01B
:1024C000AC014E5F5F4F2417350748F04E0F5F1F7A
:1024D0005093B6034093B503819391939FCFF0E05F
:1024E000E0E09CCFCF93DF930097E9F0FC013297B7
:1024F00013821282A091B703B091B803ED0130E0CE
:1025000020E01097A1F420813181820F931F209148
:10251000B5033091B6032817390709F061C0F0936D
:10252000B603E093B503DF91CF910895EA01CE178A
:10253000DF07E8F54A815B819E0141155105B1F73E
:10254000E901FB83EA8349915991C40FD51FEC1728
:10255000FD0761F4808191810296840F951FE90146
:1025600099838883828193819B838A83F0E0E0E072
:1025700012968D919C9113970097B9F52D913C91EE
:102580001197CD010296820F931F2091B5033091D0
:10259000B6032817390739F6309751F51092B8036A
:1025A0001092B703B093B603A093B503BCCFD38307
:1025B000C28340815181840F951FC817D90761F4E8
:1025C0004E5F5F4F88819981480F591F5183408327
:1025D0008A819B81938382832115310509F0B0CFD5
:1025E000F093B803E093B7039ECFFD01DC01C0CFA9
:0A25F00013821282D7CFF894FFCFB8
:1025FA00FFFFFFFF0100E100000000000000C180B2
:10260A00810000000000B903800000000000ED0115
:10261A00D3043404030250020E022C02000000000C
:10262A002D06F604BB057906EC05CA05DE05000091
:10263A00000099061207D706BC06000000008907A9
:06264A005D07450844088D
:00000001FF
